:020000005D2A77
:08000800FF00030E8312031335
:10001000A0000A0EA100040EA2008A110A126F2A83
:10002000B208031D14280800993000000000FF3EAC
:10003000031D15280000B20B14280800FA30B20086
:100040001020FA30B2001020FA30B2001020FA303E
:10005000B2001020B10B1E280800C808031D3B2861
:100060000030CB001730CA000030CD001530CC0076
:100070004908AF0049280030D0001D30CA005008A0
:10008000CB000030D0001B30CC005008CD00490818
:10009000B0004908003A03195428013A03195C28B2
:1000A000033A03196928752883134B1883174A08E4
:1000B0008400003080000800C808031D642825085B
:1000C000CE002608CF0075282908CE002A08CF00C8
:1000D0007528C808031D71282708CE002808CF00FE
:1000E00075282B08CE002C08CF004E0EF039D0001A
:1000F0003030D00583134B1883174A08840050080A
:1001000080004E08D0004F0CD100D00CD10CD00C88
:1001100083134D1883174C08840050088000831304
:100120004B1883174A0884000C30800408004608E6
:1001300003178D000313470803178C008B138316D6
:100140008C130C1555308D00AA308D008C148C1832
:10015000A7280C118B170800FF3043020318080072
:100160004308C6004408C700972083120313430ABC
:10017000C6004508C700972008000C1EBD283F0890
:100180009900080083120313981CC92898101812AC
:1001900018168C1EC9281A08BF000800BF08031DC6
:1001A000DE28C008031DD9282508C1002608C20082
:1001B00008002708C1002808C2000800C008031D65
:1001C000E6282908C1002A08C20008002B08C1003F
:1001D0002C08C2000800BF08031D3829C008031DF1
:1001E0001129C1080319FF282508003C0318260817
:1001F00003190A29A5080319A603A5030A29033030
:100200002602031D0529FF30250203180A29A50A25
:100210000319A60AC3012508C4002608C500AC209E
:100220003129C1080319202903302802031D1A2986
:10023000FF30270203182A29A70A0319A80A2A2926
:100240002708003C0318280803192A29A7080319BE
:10025000A803A7030230C3002708C4002808C5006C
:10026000AC2083120313C8012F08C9002D200800F9
:10027000C008031D5C29C10803194A2903302A025A
:10028000031D4429FF30290203185429A90A031920
:10029000AA0A54292908003C03182A0803195429DA
:1002A000A9080319AA03A9030430C3002908C4003C
:1002B0002A08C500AC207C29C10803196A292B082B
:1002C000003C03182C0803197529AB080319AC036B
:1002D000AB03752903302C02031D7029FF302B025C
:1002E00003187529AB0A0319AC0A0630C3002B08A2
:1002F000C4002C08C500AC20013083120313C800D1
:100300003008C9002D200800360803178D00831619
:100310008C130C140C188A2983120C080313B700D1
:100320000800B201B301FF3031020318AA293108D5
:10033000B60084213708B500310AB6008421370899
:10034000B400B6013408B7003508B6043608B20068
:100350003708B3003208B6003308B7000800831628
:1003600087170717831231088316990026309800E3
:10037000903083129800080083160313071187102A
:10038000831207118710B10191213608A5003708A3
:10039000A6002508FF3AFF3003192606031D022A8E
:1003A000C301C830C400C501AC200230831203135E
:1003B000C300F430C4000130C500AC200430831207
:1003C0000313C3002030C4000330C500AC20063046
:1003D00083120313C3002C30C4000130C500AC20CD
:1003E000C83083120313A500A601F430A700013022
:1003F000A8002030A9000330AA002C30AB00013047
:10040000AC00172A0230B10091213608A700370846
:10041000A8000430B10091213608A9003708AA00CD
:100420000630B10091213608AB003708AC00FF3030
:100430008316920006308312920008008312031381
:100440001F151F19212AB2011E08B1000030B20584
:100450003108FF39B30083161E088312B204080066
:100460008316031305148E309F00413083129F00C2
:10047000080083160313860183128613BC213022E1
:100480000130B100AF21C801C9012D200130C800E1
:10049000C9012D2086131E221E22C0308B00831618
:1004A0008C121E223208A3003308A40083168C1677
:1004B00001308312B1001E204F2A831203132D1026
:1004C000A301A401A501A601A701A801A901AA01F0
:1004D000AB01AC01AF01B0018A110A12392A8312B3
:1004E00003132D18752AAE012D148C1EFD2AC2206F
:1004F0003F08B800AE08031D852A3808A53A031D39
:10050000832A0130AE008C12FD2AAE01E03038059E
:10051000BE003E08003A03199A2A203A0319BA2A63
:10052000603A0319C02A203A0319C72AE03A03198E
:10053000E12AFC2A381E9F2A0130B900A02AB901FD
:10054000B80CB80C3F30B8050330B8053803031DAC
:10055000AC2A0130BA00B42A3808023A031DB32A83
:100560000230BA00B42ABA013908C8003A08C900F2
:100570002D20FC2A381EBE2A8617FC2A8613FC2A48
:100580002408BF00BD202308BF00BD20FC2A381E60
:10059000CC2A0130B900CD2AB901B81DD22A0130C8
:1005A000BB00D32ABB010430B805B80CB80C3F30EF
:1005B000B8053908BF003B08C0003808C100EB206F
:1005C000FC2A381EE62A0130B900E72AB901B81D15
:1005D000EC2A0130BB00ED2ABB013908BF003B0803
:1005E000C000CE204108BC004208BD003D08BF004D
:1005F000BD203C08BF00BD208C12220E8400210EBD
:0C0600008A00200E8300FF0E7F0E090010
:02400E00713F00
:00000001FF
