:02000000FF2AD5
:08000800FF00030E8312031335
:10001000AE000A0EAF00040EB0008A110A120D2BBA
:100020008312031310100C1C5C282408003C0318D6
:10003000250803192A28FF302502031D2128FF3037
:10004000240203182A282508960024089500831600
:100050000C152C2883160C118312A408031D3528B7
:10006000A508031D35280711362807152B08003C65
:1000700003182C0803194B28FF302C02031D4228BB
:10008000FF302B0203184B282C089C002B089B00E8
:1000900083160D144D2883160D108312AB08031D13
:1000A0005628AC08031D5628871057288714B730E8
:1000B0008F00FF308E000C1083160C1D64288312F5
:1000C0000C1D642807110C1183160D1C6C2883125B
:1000D0000D1C6C2887100D108312101408003F08A7
:1000E00003178D000313400803178C008B1383162E
:1000F0008C130C1555308D00AA308D008C148C1883
:100100007F280C118B1708003D0803178D008316FC
:100110008C130C140C188A2883120C080313BE00CD
:10012000080010103D08003A03199D28013A0319F0
:10013000A628033A0319B328BF28BC08031DA32827
:10014000A401A501BF28AB01AC01BF28BC08031D59
:10015000AE282008A4002108A500BF282708AB006E
:100160002808AC00BF28BC08031DBB282208A40037
:100170002308A500BF282908AB002A08AC00BC084A
:10018000031DC5283D08A600C7283D08AD00101472
:100190000800FF303C02031808003C08BF003D087F
:1001A000C0006F20831203133C0ABF003E08C0004A
:1001B0006F200800B901BA01FF3038020318F32894
:1001C0003808BD0084203E08BC00380ABD008420E9
:1001D0003E08BB00BD013B08BE003C08BD043D0815
:1001E000B9003E08BA003908BD003A08BE00080050
:1001F0000C1EF82839089900080083120313981C74
:1002000004299810181218168C1E04291A08B9000F
:10021000080083168717071783123808831699007A
:10022000263098009030831298000800B908031D0A
:100230002629BA08031D21292008BB002108BC007B
:1002400008002208BB002308BC000800BA08031DF0
:100250002E292708BB002808BC0008002908BB007D
:100260002A08BC00080083160313071187108312A5
:1002700007118710A401A501AB01AC01A601AD01D6
:10028000B801DA203D08A0003E08A1002008FF3A8E
:10029000FF3003192106031D8129BC010C30BD006C
:1002A000BC30BE00C920023083120313BC003230C0
:1002B000BD00BE30BE00C920043083120313BC0051
:1002C0002230BD00BF30BE00C920063083120313A8
:1002D000BC007630BD00BB30BE00C9200C3083129C
:1002E0000313A000BC30A1003230A200BE30A30036
:1002F0002230A700BF30A8007630A900BB30AA008A
:1003000096290230B800DA203D08A2003E08A3007A
:100310000430B800DA203D08A7003E08A8000630E7
:10032000B800DA203D08A9003E08AA000A3097006C
:100330009D00B7308F00FF308E0083160C14013003
:10034000831290000800B908031DF429BA08031DA0
:10035000CB29BB080319B9292108483C031DB22940
:100360002008003C0318C429A0080319A103A00316
:10037000C429FF302102031DBF29FF3020020318CA
:10038000C429A00A0319A10ABC012008BD00210844
:10039000BE00C920ED29BB080319DA29FF3023026A
:1003A000031DD429FF3022020318E629A20A0319EB
:1003B000A30AE6292308483C031DE0292208003C43
:1003C0000318E629A2080319A303A2030230BC0004
:1003D0002208BD002308BE00C92083120313BC01FC
:1003E0002608BD0091200800BA08031D1A2ABB0880
:1003F0000319062AFF302802031D002AFF302702B6
:100400000318122AA70A0319A80A122A2808483C26
:10041000031D0C2A2708003C0318122AA7080319F9
:10042000A803A7030430BC002708BD002808BE00AD
:10043000C9203C2ABB0803192A2A2A08483C031D64
:10044000232A2908003C0318352AA9080319AA03FE
:10045000A903352AFF302A02031D302AFF30290262
:100460000318352AA90A0319AA0A0630BC0029086C
:10047000BD002A08BE00C920013083120313BC004E
:100480002D08BD0091200800831203131F151F19AA
:10049000472ABA011E08B9000030BA053908FF39E9
:1004A000BB0083161E088312BA04080083160313C8
:1004B00005148E309F00413083129F000800831284
:1004C0000313B1018316860183128613332156224A
:1004D0000130B8000921BC01BD0191200130BC00F0
:1004E000BD0191208613C0308B00FD203908B20079
:1004F000B108031D822A3208A53A031D752A01306E
:10050000B100752AB101E0303205B8003808003A70
:100510000319972A203A0319B72A603A0319BD2A0A
:10052000203A0319C92AE03A0319E32A752A321E30
:100530009C2A0130B5009D2AB501B20CB20C3F30A7
:10054000B2050330B2053203031DA92A0130B600FB
:10055000B12A3208023A031DB02A0230B600B12A8D
:10056000B6013508BC003608BD009120752A321E40
:10057000BB2A8617752A8613752A44223A08B300C7
:100580003B08B4003408B900F8203308B900F8205B
:10059000752A321ECE2A0130B500CF2AB501B21D10
:1005A000D42A0130B700D52AB7010430B205B20C05
:1005B000B20C3F30B2053508B9003708BA0032082E
:1005C000BB00A321752A321EE82A0130B500E92AB2
:1005D000B501B21DEE2A0130B700EF2AB701350888
:1005E000B9003708BA0016213B08B3003C08B40034
:1005F0003408B900F8203308B900F820752A8313AD
:10060000203084000D3083120313AD008001840A72
:100610008A110A12AD0B062B5F2A1020300E8400BF
:0E0620002F0E8A002E0E8300FF0E7F0E0900A3
:02400E00713F00
:00000001FF
