:02000000572A7D
:08000800FF00030E8312031335
:10001000A0000A0EA100040EA2008A110A12682A8A
:10002000B208031D14280800993000000000FF3EAC
:10003000031D15280000B20B14280800FA30B20086
:100040001020FA30B2001020FA30B2001020FA303E
:10005000B2001020B10B1E280800C808031D3B2861
:100060000030CB001730CA000030CD001530CC0076
:100070004908AF0049280030D0001D30CA005008A0
:10008000CB000030D0001B30CC005008CD00490818
:10009000B0004908003A03195428013A03195C28B2
:1000A000033A03196928752883134B1883174A08E4
:1000B0008400003080000800C808031D642825085B
:1000C000CE002608CF0075282908CE002A08CF00C8
:1000D0007528C808031D71282708CE002808CF00FE
:1000E00075282B08CE002C08CF004E0EF039D0001A
:1000F0003030D00583134B1883174A08840050080A
:1001000080004E08D0004F0CD100D00CD10CD00C88
:1001100083134D1883174C08840050088000831304
:100120004B1883174A0884000C30800408004608E6
:1001300003178D000313470803178C008B138316D6
:100140008C130C1555308D00AA308D008C148C1832
:10015000A7280C118B170800FF3043020318080072
:100160004308C6004408C700972083120313430ABC
:10017000C6004508C700972008000C1EBD283F0890
:100180009900080083120313981CC92898101812AC
:1001900018168C1EC9281A08BF000800BF08031DC6
:1001A000DE28C008031DD9282508C1002608C20082
:1001B00008002708C1002808C2000800C008031D65
:1001C000E6282908C1002A08C20008002B08C1003F
:1001D0002C08C2000800BF08031D3829C008031DF1
:1001E0001129C1080319FF282508003C0318260817
:1001F00003190A29A5080319A603A5030A29033030
:100200002602031D0529FF30250203180A29A50A25
:100210000319A60AC3012508C4002608C500AC209E
:100220003129C1080319202903302802031D1A2986
:10023000FF30270203182A29A70A0319A80A2A2926
:100240002708003C0318280803192A29A7080319BE
:10025000A803A7030230C3002708C4002808C5006C
:10026000AC2083120313C8012F08C9002D200800F9
:10027000C008031D5C29C10803194A2903302A025A
:10028000031D4429FF30290203185429A90A031920
:10029000AA0A54292908003C03182A0803195429DA
:1002A000A9080319AA03A9030430C3002908C4003C
:1002B0002A08C500AC207C29C10803196A292B082B
:1002C000003C03182C0803197529AB080319AC036B
:1002D000AB03752903302C02031D7029FF302B025C
:1002E00003187529AB0A0319AC0A0630C3002B08A2
:1002F000C4002C08C500AC20013083120313C800D1
:100300003008C9002D20080083120313BF011E0806
:10031000BE000030BF053E08FF39C00083161E082E
:100320008312BF040800360803178D0083168C1350
:100330000C140C18992983120C080313B700080039
:10034000B201B301FF3031020318B9293108B600F8
:1003500093213708B500310AB60093213708B4005D
:10036000B6013408B7003508B6043608B2003708BD
:10037000B3003208B6003308B700080083168717A9
:1003800007178312310883169900263098009030A1
:100390008312980083168C16080083160313071126
:1003A0008710831207118710B101A0213608A5001C
:1003B0003708A6002508FF3AFF3003192606031D5B
:1003C000132AC301C830C400C501AC200230831217
:1003D0000313C300F430C4000130C500AC20043066
:1003E00083120313C3002030C4000330C500AC20C7
:1003F000063083120313C3002C30C4000130C50043
:10040000AC20C83083120313A500A601F430A70066
:100410000130A8002030A9000330AA002C30AB0026
:100420000130AC00282A0230B100A0213608A70014
:100430003708A8000430B100A0213608A900370809
:10044000AA000630B100A0213608AB003708AC0086
:10045000FF30831692000630831292000800831248
:1004600003131F1508008316031305148E309F0015
:10047000413083129F000C17080083160313860176
:1004800083128613CD2133220130B100BE218312A5
:10049000C801C9012D200130C800C9012D208613D3
:1004A000C0308B002F220130B1001E20522A83124F
:1004B00003132D10AD10A501A601A701A801A901E4
:1004C000AA01AB01AC01AF01B0018A110A123D2AA9
:1004D000831203132D186E2AAE012D14AD18732A42
:1004E000A301A401AD140C1F7B2A84213F08A300A3
:1004F0004008A4000C138C1E032BC2203F08B80038
:10050000AE08031D8B2A3808A53A031D892A01303D
:10051000AE008C12032BAE01E0303805BE003E0861
:10052000003A0319A02A203A0319C02A603A031995
:10053000C62A203A0319CD2AE03A0319E72A022BEA
:10054000381EA52A0130B900A62AB901B80CB80C8A
:100550003F30B8050330B8053803031DB22A013017
:10056000BA00BA2A3808023A031DB92A0230BA0082
:10057000BA2ABA013908C8003A08C9002D20022B4E
:10058000381EC42A8617022B8613022B2408BF00AC
:10059000BD202308BF00BD20022B381ED22A013007
:1005A000B900D32AB901B81DD82A0130BB00D92A15
:1005B000BB010430B805B80CB80C3F30B805390899
:1005C000BF003B08C0003808C100EB20022B381EDA
:1005D000EC2A0130B900ED2AB901B81DF22A013028
:1005E000BB00F32ABB013908BF003B08C000CE2086
:1005F0004108BC004208BD003D08BF00BD203C08CA
:10060000BF00BD208C12220E8400210E8A00200E15
:080610008300FF0E7F0E0900BC
:02400E00713F00
:00000001FF
